:020000040800F2
:10000000606400205D420008D134000849420008C5
:100010004942000849420008494200080000000027
:10002000000000000000000000000000A1430008E4
:100030004942000800000000F9420008A1E200085F
:10004000C5460008C5460008C5460008C546000864
:10005000C5460008C5460008C5460008C546000854
:10006000C5460008C5460008C5460008C546000844
:10007000C5460008C5460008C5460008C546000834
:10008000C5460008C5460008C5460008C546000824
:10009000C5460008C5460008C5460008C546000814
:1000A000C5460008C5460008C5460008C546000804
:1000B000C5460008C5460008C5460008C5460008F4
:1000C000C5460008C5460008C5460008C5460008E4
:1000D000C5460008C5460008C5460008C5460008D4
:1000E000C5460008C5460008C5460008C5460008C4
:1000F000C5460008C5460008C5460008C5460008B4
:10010000C5460008C5460008C5460008C5460008A3
:10011000C5460008C5460008C5460008C546000893
:10012000C5460008C5460008C5460008C546000883
:10013000C5460008C5460008C5460008C546000873
:10014000C5460008C5460008C5460008C546000863
:10015000C5460008C5460008C5460008C546000853
:10016000C5460008C5460008C5460008C546000843
:10017000C5460008C5460008C5460008C546000833
:08018000C5460008C546000851
:1001880081F0004102E000BF83F0004330B54FEA40
:1001980041044FEA430594EA050F08BF90EA020FAD
:1001A8001FBF54EA000C55EA020C7FEA645C7FEA40
:1001B800655C00F0E2804FEA5454D4EB5555B8BF63
:1001C8006D420CDD2C4480EA020281EA030382EAD4
:1001D800000083EA010180EA020281EA0303362D66
:1001E80088BF30BD11F0004F4FEA01314FF4801C39
:1001F8004CEA113102D0404261EB410113F0004F4B
:100208004FEA03334CEA133302D0524263EB430301
:1002180094EA050F00F0A780A4F10104D5F1200E9F
:100228000DDB02FA0EFC22FA05F2801841F10001FA
:1002380003FA0EF2801843FA05F359410EE0A5F1CE
:1002480020050EF1200E012A03FA0EFC28BF4CF0FF
:10025800020C43FA05F3C01851EBE37101F00045B5
:1002680007D54FF0000EDCF1000C7EEB00006EEBC2
:100278000101B1F5801F1BD3B1F5001F0CD349084C
:100288005FEA30004FEA3C0C04F101044FEA4452A3
:1002980012F5800F80F09A80BCF1004F08BF5FEA2A
:1002A800500C50F1000041EB045141EA050130BD0A
:1002B8005FEA4C0C404141EB0101013C28BFB1F51C
:1002C800801FE9D291F0000F04BF01460020B1FA67
:1002D80081F308BF2033A3F10B03B3F120020CDA3A
:1002E8000C3208DD02F1140CC2F10C0201FA0CF018
:1002F80021FA02F10CE002F11402D8BFC2F1200C7D
:1003080001FA02F120FA0CFCDCBF41EA0C01904032
:10031800E41AA2BF01EB0451294330BD6FEA04047B
:100328001F3C1CDA0C340EDC04F11404C4F1200266
:1003380020FA04F001FA02F340EA030021FA04F378
:1003480045EA030130BDC4F10C04C4F1200220FACF
:1003580002F001FA04F340EA0300294630BD21FA0D
:1003680004F0294630BD94F0000F83F4801306BFD3
:1003780081F480110134013D4EE77FEA645C18BFC7
:100388007FEA655C29D094EA050F08BF90EA020F5E
:1003980005D054EA000C04BF1946104630BD91EA56
:1003A800030F1EBF0021002030BD5FEA545C05D159
:1003B8004000494128BF41F0004130BD14F5800498
:1003C8003CBF01F5801130BD01F0004545F0FE410C
:1003D80041F470014FF0000030BD7FEA645C1ABF41
:1003E800194610467FEA655C1CBF0B46024650EA78
:1003F800013406BF52EA033591EA030F41F40021A4
:1004080030BD00BF90F0000F04BF0021704730B529
:100418004FF4806404F132044FF000054FF00001FE
:1004280050E700BF90F0000F04BF0021704730B5BF
:100438004FF4806404F1320410F0004548BF404294
:100448004FF000013EE700BF42004FEAE2014FEAE9
:1004580031014FEA02701FBF12F07F4393F07F4FC4
:1004680081F06051704732F07F4208BF704793F0C7
:100478007F4F04BF41F40021704730B54FF46074DA
:1004880001F0004521F000411CE700BF50EA0102DD
:1004980008BF704730B54FF000050AE050EA010286
:1004A80008BF704730B511F0004502D5404261EBF6
:1004B80041014FF4806404F132045FEA915C3FF437
:1004C800D8AE4FF003025FEADC0C18BF03325FEAD4
:1004D800DC0C18BF033202EBDC02C2F1200300FA85
:1004E80003FC20FA02F001FA03FE40EA0E0021FAAA
:1004F80002F11444BDE600BF70B54FF0FF0C4CF498
:10050800E06C1CEA11541DBF1CEA135594EA0C0F49
:1005180095EA0C0F00F0DEF82C4481EA030621EA84
:100528004C5123EA4C5350EA013518BF52EA0335BF
:1005380041F4801143F4801338D0A0FB02CE4FF071
:100548000005E1FB02E506F00042E0FB03E54FF0A1
:100558000006E1FB03569CF0000F18BF4EF0010E99
:10056800A4F1FF04B6F5007F64F5407404D25FEA95
:100578004E0E6D4146EB060642EAC62141EA555148
:100588004FEAC52040EA5E504FEACE2EB4F1FD0C8A
:1005980088BFBCF5E06F1ED8BEF1004F08BF5FEA08
:1005A800500E50F1000041EB045170BD06F00046BA
:1005B80046EA010140EA020081EA0301B4EB5C0467
:1005C800C2BFD4EB0C0541EA045170BD41F480115F
:1005D8004FF0000E013C00F3AB8014F1360FDEBF84
:1005E800002001F0004170BDC4F10004203C35DA60
:1005F8000C341BDC04F11404C4F1200500FA05F3E3
:1006080020FA04F001FA05F240EA020001F0004283
:1006180021F0004110EBD37021FA04F642EB0601F9
:100628005EEA430E08BF20EAD37070BDC4F10C0423
:10063800C4F1200500FA04F320FA05F001FA04F2E7
:1006480040EA020001F0004110EBD37041F10001D3
:100658005EEA430E08BF20EAD37070BDC4F12005DE
:1006680000FA05F24EEA020E20FA04F301FA05F246
:1006780043EA020321FA04F001F0004121FA04F2EE
:1006880020EA020000EBD3705EEA430E08BF20EABE
:10069800D37070BD94F0000F0FD101F000464000F8
:1006A80041EB010111F4801F08BF013CF7D041EA7A
:1006B800060195F0000F18BF704703F0004652007E
:1006C80043EB030313F4801F08BF013DF7D043EA4F
:1006D8000603704794EA0C0F0CEA135518BF95EA05
:1006E8000C0F0CD050EA410618BF52EA4306D1D18C
:1006F80081EA030101F000414FF0000070BD50EAAB
:10070800410606BF1046194652EA430619D094EA34
:100718000C0F02D150EA013613D195EA0C0F05D11E
:1007280052EA03361CBF104619460AD181EA030172
:1007380001F0004141F0FE4141F470014FF000002A
:1007480070BD41F0FE4141F4780170BD70B54FF0C5
:10075800FF0C4CF4E06C1CEA11541DBF1CEA135545
:1007680094EA0C0F95EA0C0F00F0A7F8A4EB050427
:1007780081EA030E52EA03354FEA013100F088801E
:100788004FEA03334FF0805545EA131343EA1263E7
:100798004FEA022245EA111545EA10654FEA00269C
:1007A8000EF000419D4208BF964244F1FD0404F555
:1007B800407402D25B084FEA3202B61A65EB0305B1
:1007C8005B084FEA32024FF480104FF4002CB6EB6E
:1007D800020E75EB030E22BFB61A754640EA0C00EE
:1007E8005B084FEA3202B6EB020E75EB030E22BF2E
:1007F800B61A754640EA5C005B084FEA3202B6EB6F
:10080800020E75EB030E22BFB61A754640EA9C002D
:100818005B084FEA3202B6EB020E75EB030E22BFFD
:10082800B61A754640EADC0055EA060E18D04FEABB
:10083800051545EA16754FEA06164FEAC30343EA5B
:1008480052734FEAC2025FEA1C1CC0D111F4801F28
:100858000BD141EA00014FF000004FF0004CB6E721
:1008680011F4801F04BF01430020B4F1FD0C88BFC0
:10087800BCF5E06F3FF6AFAEB5EB030C04BFB6EBCB
:10088800020C5FEA500C50F1000041EB045170BDBE
:100898000EF0004E4EEA113114EB5C04C2BFD4EBEB
:1008A8000C0541EA045170BD41F480114FF0000E6F
:1008B800013C90E645EA060E8DE60CEA135594EAEB
:1008C8000C0F08BF95EA0C0F3FF43BAF94EA0C0FEE
:1008D8000AD150EA01347FF434AF95EA0C0F7FF463
:1008E80025AF104619462CE795EA0C0F06D152EAB7
:1008F80003353FF4FDAE1046194622E750EA41069B
:1009080018BF52EA43067FF4C5AE50EA41047FF4AB
:100918000DAF52EA43057FF4EBAE12E74FF0FF3C10
:1009280006E000BF4FF0010C02E000BF4FF0010CE1
:100938004DF804CD4FEA410C7FEA6C5C4FEA430C5A
:1009480018BF7FEA6C5C1BD001B050EA410C0CBFA9
:1009580052EA430C91EA030F02BF90EA020F00200B
:10096800704710F1000F91EA030F58BF994208BF72
:1009780090422CBFD8176FEAE37040F0010070472F
:100988004FEA410C7FEA6C5C02D150EA013C07D186
:100998004FEA430C7FEA6C5CD6D152EA033CD3D0D1
:1009A8005DF8040B704700BF8446104662468C46CB
:1009B8001946634600E000BF01B5FFF7B7FF0028FE
:1009C80048BF10F1000F01BD4DF808EDFFF7F4FF27
:1009D8000CBF012000205DF808FB00BF4DF808EDB2
:1009E800FFF7EAFF34BF012000205DF808FB00BFD5
:1009F8004DF808EDFFF7E0FF94BF012000205DF8F7
:100A080008FB00BF4DF808EDFFF7CEFF94BF0120AB
:100A180000205DF808FB00BF4DF808EDFFF7C4FFA4
:100A280034BF012000205DF808FB00BF4FEA4102F7
:100A380012F5001215D211D56FF47873B3EB625228
:100A480012D94FEAC12343F0004343EA505311F04F
:100A5800004F23FA02F018BF404270474FF00000E1
:100A6800704750EA013005D111F0004008BF6FF01F
:100A7800004070474FF00000704700BF80F0004012
:100A880002E000BF81F0004142001FBF5FEA41035E
:100A980092EA030F7FEA226C7FEA236C6AD04FEA5E
:100AA8001262D2EB1363C1BFD218414048404140A3
:100AB800B8BF5B42192B88BF704710F0004F40F455
:100AC800000020F07F4018BF404211F0004F41F471
:100AD800000121F07F4118BF494292EA030F3FD03D
:100AE800A2F1010241FA03FC10EB0C00C3F1200350
:100AF80001FA03F100F0004302D5494260EB4000DF
:100B0800B0F5000F13D3B0F1807F06D340084FEA49
:100B1800310102F10102FE2A51D2B1F1004F40EB3E
:100B2800C25008BF20F0010040EA030070474900A6
:100B380040EB0000013A28BFB0F5000FEDD2B0FA43
:100B480080FCACF1080CB2EB0C0200FA0CF0AABF66
:100B580000EBC25052421843BCBFD0401843704704
:100B680092F0000F81F4000106BF80F4000001320A
:100B7800013BB5E74FEA41037FEA226C18BF7FEAE1
:100B8800236C21D092EA030F04D092F0000F08BF23
:100B98000846704790EA010F1CBF0020704712F00A
:100BA8007F4F04D1400028BF40F00040704712F149
:100BB80000723CBF00F50000704700F0004343F0AE
:100BC800FE4040F4000070477FEA226216BF0846E4
:100BD8007FEA23630146420206BF5FEA412390EAA7
:100BE800010F40F4800070474FF0000304E000BF9D
:100BF80010F0004348BF40425FEA000C08BF70474E
:100C080043F0964301464FF000001CE050EA010211
:100C180008BF70474FF000030AE000BF50EA010226
:100C280008BF704711F0004302D5404261EB410113
:100C38005FEA010C02BF84460146002043F0B64338
:100C480008BFA3F18053A3F50003BCFA8CF2083A5D
:100C5800A3EBC25310DB01FA02FC634400FA02FC66
:100C6800C2F12002BCF1004F20FA02F243EB02006D
:100C780008BF20F00100704702F1200201FA02FCCF
:100C8800C2F1200250EA4C0021FA02F243EB0200C2
:100C980008BF20EADC7070477BB972B90029BEBF73
:100CA80000204FF0004106E008BF00281CBF6FF08D
:100CB80000414FF0FF3000F075B8ADF1080C6DE958
:100CC80004CE002909DB002B1ADB00F09FF8DDF8C1
:100CD80004E0DDE9022304B07047404261EB4101C2
:100CE800002B1BDB00F092F8DDF804E0DDE90223BD
:100CF80004B0404261EB4101524263EB4303704749
:100D0800524263EB430300F081F8DDF804E0DDE9CB
:100D1800022304B0404261EB41017047524263EB49
:100D2800430300F073F8DDF804E0DDE9022304B0C2
:100D3800524263EB4303704753B94AB9002908BFCD
:100D480000281CBF4FF0FF314FF0FF3000F02AB8E9
:100D5800ADF1080C6DE904CE00F058F8DDF804E0B8
:100D6800DDE9022304B07047D0B50C4B00220646DB
:100D78000F46FFF7C1FB00F017F80446FFF742FBE8
:100D8800074B0022FFF7B8FB02460B4630463946B0
:100D9800FFF7FAF900F008F82146D0BD0000F03D51
:100DA8000000F041704700BF4A0011D212F500124E
:100DB80011D20DD56FF47873B3EB62520ED44FEAAB
:100DC800C12343F0004343EA505323FA02F070472B
:100DD8004FF00000704750EA013002D14FF0FF3069
:100DE80070474FF00000704710F8012B11F8013BD5
:100DF800012A28BF9A42F7D0D01A7047034613F841
:100E0800012B002AFBD1181A013870472DE9F04749
:100E180086468C460846089E154674461946002B99
:100E280040F0C2808542B2FA82F245D94AB1C2F195
:100E3800200300FA02FC2EFA03F3954043EA0C0C57
:100E480094404FEA154EA8B2BCFBFEF8230C0EFBEB
:100E580018CC08FB00F943EA0C43994528D9EB184C
:100E680008F1FF3704D2994502D9A8F102072B44AB
:100E7800A3EB0903A4B2B3FBFEFC0EFB1C330CFB73
:100E880000F044EA0344A04214D92C190CF1FF33B2
:100E980004D2A04202D9ACF102032C44241A43EA3A
:100EA80007401EB1D440002334607360BDE8F0876A
:100EB8004746DDE76346F1E792BB431B01214FEA52
:100EC800154EAFB2B3FBFEFC200C0EFB1C330CFB23
:100ED80007F840EA0343984562D9EB180CF1FF3054
:100EE80004D2984502D9ACF102002B44A3EB0803C5
:100EF800A4B2B3FBFEFC0EFB1C330CFB07F744EA61
:100F08000344A7424ED92C190CF1FF3304D2A7424F
:100F180002D9ACF102032C44E41B43EA0040C0E7C9
:100F2800C2F1200320FA03F1954090402EFA03F312
:100F380003434FEA154EAFB2B1FBFEFC0EFB1C108B
:100F4800190C0CFB07F841EA0041884504FA02F441
:100F580022D969180CF1FF3004D2884502D9ACF1C6
:100F680002002944A1EB08019BB2B1FBFEFC0EFB79
:100F78001C110CFB07F743EA01439F420ED9EB18FB
:100F88000CF1FF3104D29F4202D9ACF102012B448B
:100F9800DB1B41EA004192E76046E3E76146F7E779
:100FA8006046A3E76346B7E7834206D916B900212E
:100FB80008467BE7C6E900E0F9E7B3FA83F78FB99B
:100FC800834201D3724508D8BEEB020460EB0303E9
:100FD80001209C461EB9002168E73846FAE7C6E9B1
:100FE800004CF8E7C7F1200CBB4022FA0CF41C4374
:100FF8002EFA0CF120FA0CF3B84001434FEA1449D9
:101008000EFA07F5B3FBF9F81FFA84FE09FB18304E
:101018000B0C08FB0EFA43EA00439A4502FA07F262
:1010280040D9E31808F1FF3004D29A4502D9A8F153
:1010380002002344A3EB0A0389B2B3FBF9F809FBC6
:10104800183308FB0EFE41EA03418E452CD961187E
:1010580008F1FF3304D28E4502D9A8F102032144D6
:1010680043EA0040A0FB0298A1EB0E014145CE46A1
:10107800434602D306D14D4504D2B9EB020E68EBC4
:1010880004030138002EA6D0B5EB0E0261EB030174
:1010980001FA0CFC22FA07F34CEA0303F940C6E90B
:1010A800003198E74046C5E74346D9E7000000000D
:1010B8002DE9B04F90B000AF78637B6B1B68DA17EF
:1010C8009A46934652465B464FF000004FF00001A7
:1010D800590141EAD261500102460B46B2EB0A04BB
:1010E80063EB0B054FF000024FF000036B0243EA7D
:1010F800D453620214461D4614EB0A0845EB0B094B
:101108004FF000024FF000034FEA891343EA986357
:101118004FEA8812B2EB0801B96063EB0903FB6080
:10112800D7E902120B4613EB0A03BB62134643EBE3
:101138000B03FB627B6B5B68DA173B627A62D7E969
:101148000A452346D7E9080102469B183B600B462F
:101158002A4642EB03037B60D7E90034C7E90E3423
:10116800D7E90E23012A73F1000312DBD7E90E2316
:1011780015495118B96143F10003FB6110A3D3E984
:101188000023D7E90601FFF787FD02460B46134601
:1011980011E0D7E90E230D495118396143F1FF33A6
:1011A8007B6107A3D3E90023D7E90401FFF774FDA6
:1011B80002460B46134618464037BD46BDE8B08F79
:1011C8003AA39500000000009DD14A00632EB5FFA8
:1011D8002DE9B04F9CB000AF78667B6E1B68DA17BC
:1011E800BB65FA65D7E916234FF000004FF0000100
:1011F800590141EAD261500102460B46B96D541AB1
:10120800F96D63EB01054FF000024FF000036B022C
:1012180043EAD453620214461D46D7E91601034631
:1012280014EB0308C7E916010B4645EB03094FF019
:1012380000024FF000034FEA891343EA98634FEA2C
:101248008812B2EB0801396363EB09037B63D7E9C2
:101258000C452346D7E9160102469B183B650B4609
:101268002A4642EB03037B657B6E5B68DA17BB6437
:10127800FA64D7E914452346D7E9120102469B18B8
:10128800BB620B462A4642EB0303FB62D7E90A34EA
:10129800C7E91A34D7E91A23012A73F100033FDB9F
:1012A800D7E91A0102460B4694183C625B417B62FF
:1012B800D7E908231418BC614B41FB614FF00002C9
:1012C8004FF00003D7E9064529460B01214643EABA
:1012D800117321460A012146511A3961294663EBE7
:1012E80001037B614FF000024FF00003D7E904458A
:1012F80029468B00214643EA917321468A002A49F0
:101308005118396443F100037B6425A3D3E9002312
:10131800D7E91001FFF7C0FC02460B4613463AE036
:10132800D7E91A0102460B469418BC605B41FB6082
:10133800D7E9022312EB000A43EB010B4FF000023E
:101348004FF000034FEA0B1343EA1A734FEA0A12ED
:10135800B2EB0A01396063EB0B037B604FF00002CC
:101368004FF00003D7E9004529468B00214643EAA0
:10137800917321468A000D495118B96343F1FF332F
:10138800FB6307A3D3E90023D7E90E01FFF784FC29
:1013980002460B46134618467037BD46BDE8B08F67
:1013A800D8EF2F0000000000ECF717001408E8FF42
:1013B8002DE9B04F90B002AF78613961FA60BB6037
:1013C80007F118031A463969786921F017FC786320
:1013D8007B6B002B01DA7B6B50E0FB6800223B60E3
:1013E8007A60D7E90623796802FB01F0396801FBC6
:1013F80003F101443868A0FB028901EB090399460F
:1014080021A3D3E9002340464946FFF795FC02464D
:101418000B46C7E90A23D7E90A23012B02D36FF049
:1014280085032BE0BB6800229A469346D7E906233A
:1014380002FB0BF00AFB03F10144AAFB02454B191E
:101448001D4611A3D3E9002320462946FFF774FC63
:1014580002460B46C7E90823D7E90823012B02D324
:101468006FF085030AE0BA6A396AB7F85830009312
:101478000B463969786921F0ADFB034618463837C1
:10148800BD46BDE8B08F00BF00CA9A3B000000000F
:101498002DE9F0439BB008AF834B3B644FF448738E
:1014A800A7F846300023BB60386C21F09BFC03464C
:1014B80083F00103DBB2002B20D00323002B17D0CD
:1014C8000123FB74FB7C83F00103DBB2002B11D1F9
:1014D800764B1968764B02930023019300230093FF
:1014E80000230122002021F0C3FD0023FB6002E05D
:1014F80000BF00E000BF6FF012038FE16D4A3B6C44
:1015080013606C4AB7F8463093806B4A3B4692E8C2
:10151800030083E803003B461946386C21F06AFD56
:10152800F863FB6B002B21D00323002B19D0012378
:10153800FB76FB7E83F00103DBB2002B13D15B4B00
:101548001968FB6B03935D4B0293002301930023FF
:10155800009300230122002021F08AFD00237B61F3
:1015680002E000BF00E000BFFB6B57E1514A54495D
:10157800386C21F0D4FCF863FB6B002B23D00323D9
:10158800002B1BD0012387F8233097F8233083F0F2
:101598000103DBB2002B13D1444B1968FB6B039397
:1015A800484B029300230193002300930023012258
:1015B800002021F05DFD0023FB6102E000BF00E098
:1015C80000BFFB6B2AE14FF000004FF0000107F16C
:1015D800080602460B4631463B4812F079F9F86393
:1015E800FB6B002B23D00323002B1BD0012387F890
:1015F8002B3097F82B3083F00103DBB2002B13D18B
:101608002A4B1968FB6B0393304B02930023019319
:101618000023009300230122002021F029FD00234C
:101628007B6202E000BF00E000BFFB6BF6E0386CB5
:1016380021F012FDBB6840220021184624F06AFA06
:10164800B96864234022386C21F0F4FCF863FB6B22
:10165800002B3FD00323002B1BD0012387F8333006
:1016680097F8333083F00103DBB2002B13D10F4B13
:101678001968FB6B0393164B029300230193002315
:10168800009300230122002021F0F2FC0023FB62DA
:1016980002E000BF00E000BF07F1080319460A484E
:1016A80022F0D7F8FB6BB9E034620208100B002077
:1016B80084970208B0230020F49702089C97020838
:1016C800BD220108BC970208080C0020D096020829
:1016D8003C970208564B9B881846FEF7A3FE024625
:1016E8000B464FF000005349FFF730F802460B460F
:1016F80010461946FFF79AF90346184610F00EF9F6
:101708004FF000004FF00001CDE9060100230493DB
:1017180007230393002302930023019300230093DC
:10172800454B4FF4C0624549454821F07AFB45498D
:10173800434821F096FB00224349444824F0FAF834
:101748004FF000084FF00009394B9B881846FEF708
:1017580069FE02460B4634A1D1E90001FEF7F6FF07
:1017680002460B46104619464FF000024FF00003A0
:10177800FFF752F90346002B22D02D4B9B881846C1
:10178800FEF750FE02460B4627A1D1E90001FEF7FD
:10179800DDFF02460B4610461946FFF7E5FA0246FA
:1017A8000B4612F1630443F100054FF064024FF059
:1017B800000320462946FFF7BFFA02460B4603E01E
:1017C8004FF000024FF0000310461946CDE9000122
:1017D80042464B461D4821F052FB0323022B19D9E0
:1017E800012387F83B3097F83B3083F00103DBB2E5
:1017F800002B11D1164B1968164B02930023019345
:101808000023009300230322002021F031FC002351
:101818007B6302E000BF00E000BF002318464C379E
:10182800BD46BDE8F08300BF0000000080842E4163
:10183800B023002000408F4035270108E0510020E8
:10184800F02300202C960208A12201080825002078
:10185800100B0020D89702082DE9F043C7B00AAF53
:10186800C44B1B680221184617F0A9FCC24B1B6821
:101878000221184617F0A3FCC04B1B68022118462A
:1018880017F09DFCBE4B1B680221184617F097FC09
:10189800BC4B1B680221184617F091FCBA4B1B6819
:1018A8000221184617F08BFC4FF47A7017F0E7FB0B
:1018B800B04B1C6807F1500328220021184624F079
:1018C80029F9B24BBB65032387F8743007F150033D
:1018D8001946204617F065FC0023C7F8A830C82031
:1018E80017F0CDFBA34B1B6807F1280211461846D9
:1018F80017F049FCBB6BC7F8B430FB6AC7F8B030C7
:101908003B6BC7F8AC300423022B32D9012387F88C
:10191800C23097F8C23083F00103DBB2002B28D124
:101928009B4B1E68D7F8B400FEF78EFD04460D46A3
:10193800D7F8B000FEF788FD80468946D7F8AC0096
:10194800FEF782FD02460B46CDE90823CDE906895C
:10195800CDE904458F4B02930023019300230093A4
:10196800002303223146002017F06BFB0023C7F841
:10197800BC30814B1B6807F128021146184617F046
:1019880002FCBB6BC7F8B830FB6AC7F8C8303B6BC2
:10199800C7F8C4300423022B32D9012387F8C33097
:1019A80097F8C33083F00103DBB2002B28D1784BC2
:1019B8001E68D7F8B800FEF747FD04460D46D7F86D
:1019C800C800FEF741FD80468946D7F8C400FEF7F7
:1019D8003BFD02460B46CDE90823CDE90689CDE952
:1019E80004456D4B029300230193002300930023C9
:1019F80003223146002017F024FB0023C7F8D43017
:101A08005E4B1B6807F128021146184617F0BBFB0E
:101A1800BB6BC7F8D030FB6AC7F8CC303B6BC7F854
:101A2800DC300423022B32D9012387F8DB3097F806
:101A3800DB3083F00103DBB2002B28D1544B1E6846
:101A4800D7F8D000FEF700FD04460D46D7F8CC00C5
:101A5800FEF7FAFC80468946D7F8DC00FEF7F4FC6E
:101A680002460B46CDE90823CDE90689CDE90445B0
:101A78004A4B02930023019300230093002303227F
:101A88003146002017F0DDFA0023C7F8EC303C4B54
:101A98001B6807F128021146184617F074FBBB6B48
:101AA800C7F8E830FB6AC7F8E4303B6BC7F8E030AA
:101AB8000423022B32D9012387F8A73097F8A730DF
:101AC80083F00103DBB2002B28D1314B1E68D7F815
:101AD800E800FEF7B9FC04460D46D7F8E400FEF727
:101AE800B3FC80468946D7F8E000FEF7ADFC024615
:101AF8000B46CDE90823CDE90689CDE90445284BF5
:101B0800029300230193002300930023032231460C
:101B1800002017F096FA0023C7F8A030194B1B686D
:101B280007F128021146184617F02DFBBB6BC7F8C2
:101B38009C30FB6AC7F898303B6BC7F89430042395
:101B4800022B4CD9012387F8933097F8933083F010
:101B58000103DBB2002B42D10D4B1E68D7F89C0065
:101B6800FEF772FC04460D46D7F89800FEF76CFCA9
:101B780018E000BF080400200C0400201004002016
:101B880014040020180400201C0400209A992940FD
:101B9800200400201C6B0208406B0208646B0208DA
:101BA800886B020880468946D7F89400FEF74CFCFB
:101BB80002460B46CDE90823CDE90689CDE904455F
:101BC800374B029300230193002300930023032241
:101BD8003146002017F035FA0023C7F88C30314B16
:101BE8001B6807F128021146184617F0CCFABB6BA0
:101BF800C7F88830FB6AC7F884303B6BC7F8803079
:101C08000423022B31D9012387F87F3097F87F30DE
:101C180083F00103DBB2002B27D1234B1E68D7F8D2
:101C28008800FEF711FC04460D46D7F88400FEF73D
:101C38000BFC80468946D7F88000FEF705FC024673
:101C48000B46CDE90823CDE90689CDE90445174BB4
:101C580002930023019300230093002303223146BB
:101C6800002017F0EEF90023BB67D7F8A83001333E
:101C7800C7F8A830D7F8A8300A2B7FF430AE0C4B41
:101C88001C683B4628220021184623F043FF032303
:101C980087F824303B461946204617F082FA1EE69C
:101CA800AC6B02081C04002020040020D06B020842
:101CB8000804002080B483B000AF78607B68094ACC
:101CC800934205D37B68084A934201D2012300E07E
:101CD800002303F00103DBB218460C37BD465DF85C
:101CE800047B7047E45E020848AF020880B5A4B0E0
:101CF80000AFF860B9607A603B60FB68FB65FB6D1C
:101D0800C7F88C300023C7F880300023FB67002316
:101D1800BB674FF0FF337B67002387F86B307B6826
:101D280003F00403002B14BF0123002387F85B3062
:101D38007B68DB0803F0070301337B66002387F821
:101D48006330FB687B65FB6803F00303002B02D05C
:101D58006FF00D03A2E3D7F88C300433C7F88C304A
:101D6800FB6D002B0DD1BB6803F00703D7F88C205F
:101D78001344C7F88C30BB6803F00703C3F10803AA
:101D8800BB60FB6D002B0AD0FB6DD7F88C20D31AF3
:101D98000433BA689A4202D26FF01B037EE33B68B1
:101DA800FB663B68013B3B600423C7F8843004238F
:101DB800C7F8883097E197F86B3083F00103DBB2FE
:101DC800002B11D03B681B78252B40F0788201232B
:101DD80087F86B307B6F01337B670423C7F8843047
:101DE8000423C7F888306AE23B681B787A2B00F333
:101DF80049814C2B11DA472B00F344812A2B71DAE5
:101E0800252B00F09280252B00F33C81202B00F03D
:101E18005882232B00F0558234E14C3B2E2B00F2E4
:101E2800318101A252F823F0CB2200088D2000084E
:101E38008D2000088D2000088D2000088D200008C6
:101E48008D2000088D2000088D2000088D200008B6
:101E58008D2000088D2000086B1F00088D200008C9
:101E68008D2000088D2000088D2000088D20000896
:101E78008D2000088D2000088D200008BB1F000859
:101E88008D2000086B1F00086B1F0008BB1F00088F
:101E9800BB1F0008BB1F0008CB2200086B1F0008EF
:101EA800411F00088D200008CB2200088D20000863
:101EB800A71F00086B1F0008A71F00088D20000837
:101EC8008D200008A11F00085D1F00086B1F000877
:101ED8008D2000088D2000086B1F00088D20000849
:101EE8004F1F00082A3B012202FA03F34FF6DA7269
:101EF8001A40002A14BF01220022D2B2002A40F060
:101F0800E08103F06252002A14BF01220022D2B2FB
:101F1800002A4ED103F00103002B14BF0123002334
:101F2800DBB2002B40F0B280ACE0002387F86B30C6
:101F38007B6F013B7B67C5E10823C7F88430082322
:101F4800C7F88830BEE10423C7F884300423C7F8F3
:101F58008830B7E10423C7F884300423C7F88830F1
:101F6800B0E13B68013B1B786C2B11D13B68023B0D
:101F78001B786C2B06D10823C7F884300823C7F8D0
:101F8800883005E00423C7F884300423C7F8883074
:101F9800002387F86B307AE0012387F86330042345
:101FA800C7F884300423C7F88830002387F86B30DB
:101FB8006DE03B68013B1B784C2B13D1D7F8983068
:101FC800073323F0070303F10802C7F89820D3E981
:101FD8000023C7E906230823C7F884300823C7F875
:101FE800883012E0D7F89830073323F0070303F15D
:101FF8000802C7F89820D3E90023C7E90623082375
:10200800C7F884300823C7F88830D7F88420D7F871
:102018008C3013445A1ED7F88430B2FBF3F2D7F849
:10202800843002FB03F3C7F88C30FB6D002B1ED005
:10203800FB6DD7F88C20D21AD7F888301344BA68C9
:102048009A4202D26FF01B0328E23B68013B1B78DF
:102058004C2B06D1D7F88C10D7E90623C1E9002309
:1020680005E0D7F88C10D7E90623C1E90023D7F893
:102078008C20D7F888301344C7F88C30002387F8B1
:102088006B301FE1002387F86B301BE100BFD7F8E6
:102098008420D7F88C3013445A1ED7F88430B2FB0A
:1020A800F3F2D7F8843002FB03F3C7F88C30FB6DEA
:1020B800002B0CD0FB6DD7F88C20D21AD7F88830BB
:1020C8001344BA689A4202D26FF01B03E6E197F80C
:1020D8006330002B00F0A080D7F898301A1DC7F89D
:1020E80098201B68FB66FB6D002B03D0D7F88C305B
:1020F800FA6E1A607B6E5A1E7A66002B05DCF86E43
:1021080017F001FB0346002B01D0012300E0002358
:1021180087F853307B6803F00203002B14BF0123B8
:10212800002387F8523097F85330002B06D097F8E1
:10213800523083F00103DBB2002B64D1FB6DD7F87A
:102148008C20D31A9B08FB6497F85230002B05D0DB
:10215800FB6C7F2B02D96FF015039FE1D7F8803015
:102168000F2B02D96FF0150398E1FB6D002B2DD0D2
:10217800FB6CD9B207F13002D7F8803013440A4615
:102188001A707B6FD9B207F12002D7F88030134458
:102198000A461A7097F85330002B13D007F1300213
:1021A800D7F8803013441B7863F07F03D9B207F166
:1021B8003002D7F8803013440A461A70BB6F0133D7
:1021C800BB671BE0FB6F0133FB6717E097F85330E1
:1021D800002B03D0BB680133BB600FE097F85B307E
:1021E800002B03D0BB680233BB6007E0F86EFEF734
:1021F80005FE0246BB6813440233BB60D7F8803043
:102208000133C7F88030D7F88C300433C7F88C30E6
:10221800002387F8633055E0D7F88830042B13D1B2
:10222800D7F898301A1DC7F898201B687B64FB6D97
:10223800002B03D0D7F88C307A6C1A60D7F88C3022
:102248000433C7F88C303DE0D7F88830042B13D11D
:10225800D7F898301A1DC7F898201B68BB64FB6D27
:10226800002B03D0D7F88C30BA6C1A60D7F88C30B2
:102278000433C7F88C3025E0D7F88830082B1BD1F9
:10228800D7F89830073323F0070303F10802C7F89B
:102298009820D3E90023C7E90423FB6D002B05D060
:1022A800D7F88C10D7E90423C1E90023D7F88C307C
:1022B8000833C7F88C3005E06FF01503EEE000BF77
:1022C80000E000BF3B6801333B603B681B78002B94
:1022D8007FF471AD00BFFB6DD7F88C20D31AB3F52E
:1022E800806F02D36FF01503D8E0FB6D002B07D188
:1022F800FB6DD7F88C20D21ABB681344083BCDE09D
:10230800FB6D00221A60FB6DD7F88C20D31A9B084E
:10231800DAB27B6D1A7097F85B30002B07D07B6DB3
:1023280000225A70FB6FDAB27B6DDA7006E0FB6F41
:10233800DAB27B6D5A707B6D0022DA70BB6FDAB24D
:102348007B6D9A70BB6F002B32D000233B672AE06D
:1023580007F130023B6F13441B785BB2002B1EDA87
:1023680007F130023B6F13441B7803F07F0387F8B3
:102378004330FB6DD7F88C20D31A0133BA689A42E0
:1023880002D26FF01B0389E0D7F88C3097F843200E
:102398001A70D7F88C300133C7F88C3000E000BFD2
:1023A8003B6F01333B673A6FD7F880309A42CFD3FF
:1023B80000233B6769E0BB6F002B07D007F13002B1
:1023C8003B6F13441B785BB2002B5ADB97F85B30EA
:1023D800002B10D00023C7F88830D7F88C3007F1CD
:1023E80020013A6F0A4412781A70D7F88C300133FA
:1023F800C7F88C301AE007F130023B6F13441B78A2
:102408009B00FA6D13441B68FB6607F130023B6FB3
:1024180013441B789B00FA6D134400221A60F86E6F
:10242800FEF7ECFC03460133C7F88830FB6DD7F89C
:102438008C20D21AD7F8883013440133BA689A42EC
:1024480002D26FF01B0329E0D7F88C3007F1300176
:102458003A6F0A4412781A70D7F88C300133C7F8EB
:102468008C30D7F88C30D7F88820F96E184623F0CE
:1024780043FBD7F88C20D7F888301344C7F88C3042
:1024880000E000BF3B6F01333B673A6FD7F88030FD
:102498009A4290D3FB6DD7F88C20D31A1846903700
:1024A800BD4680BD80B483B000AF7860044A7B68C5
:1024B800136000BF0C37BD465DF8047B704700BF52
:1024C8002404002080B500AF23F0FEFC0346024A36
:1024D8009B58184680BD00BF0800000080B584B036
:1024E80000AFF860B9607A603B6017F0AFF9024658
:1024F80023F0EAFC034606495A50FB683A687968B3
:10250800B8689847FFF7DEFF0346184617F0A5F9A5
:102518000800000080B400AF054B5B68044A23F054
:102528000203536000BFBD465DF8047B704700BFDF
:10253800002004E080B400AF054B1B68044A43F454
:102548008073136000BFBD465DF8047B704700BF11
:10255800003C024080B400AF054B1B68044A43F4BA
:102568000073136000BFBD465DF8047B704700BF71
:10257800003C024080B400AF054B1B68044A43F49A
:102588008063136000BFBD465DF8047B704700BFE1
:10259800003C024080B500AFFFF7CCFFFFF7DAFF41
:1025A800FFF7E8FF024B034A1A6000BF80BD00BF77
:1025B800140B00200024F40080B485B000AF7860CC
:1025C8007B681B01044A1344FB60FB6818461437F8
:1025D800BD465DF8047B7047106A020880B483B07A
:1025E80000AF7860044A7B6852F8233018460C37ED
:1025F800BD465DF8047B7047089E020880B582B02E
:1026080000AF194B00221A70184B00221A60184BA1
:1026180000221A604FF47A71164800F091F8164BB0
:102628007B6015E001233B600020FFF7C5FF0246F1
:102638007B689B1A1B111A463B6813443B603B6836
:10264800DBB21946786817F027FA7B6810337B608D
:102658007B680A4A934234BF01230023DBB2002B74
:10266800E0D10837BD4680BDD0310020282A00209F
:10267800242A0020179B0108106A0208206A020811
:1026880080B586B000AF03460A46FB711346BB719E
:1026980000237B61274817F02BF90346002B01D054
:1026A800002342E000233B61234BFB6022E0FB68F0
:1026B8001B7B002B18D0F86817F0A7F9F86817F0FB
:1026C800BAF90346002B08D1FB685B681B68042233
:1026D8001946F86817F013FB06E001223B6902FA75
:1026E80003F37A6913437B613B6901333B61FB6800
:1026F8001033FB60FB68114A934234BF0123002367
:10270800DBB2002BD3D1FB79002B0DD009E078691F
:1027180017F004FA7861BB79002B02D00A2017F071
:1027280015F97B69002BF2D17B6918461837BD462D
:1027380080BD00BF202A0020106A0208206A020813
:1027480080B582B000AF786039607B68002B02D119
:102758006FF0150309E0074A7B681360064A3B6877
:102768001360386800F0DAFC002318460837BD46C5
:1027780080BD00BF280400202C2A002080B582B02C
:1027880000AF144B1B78002B20D100210120FFF74C
:1027980077FF114B7B600BE0786817F08DF90346E3
:1027A800002B02D0786817F06AF97B6810337B60D9
:1027B8007B680A4A934234BF01230023DBB2002B13
:1027C800EAD100BF034B01221A7000E000BF0837AE
:1027D800BD4680BDD0310020106A0208206A020878
:1027E80080B584B000AF7860124BFB6013E0F868E6
:1027F80017F062F90346002B0AD07968F86817F0D9
:10280800C8F90346002B03D07968F86817F028F94F
:10281800FB681033FB60FB68074A934234BF01230F
:102828000023DBB2002BE2D100BF00BF1037BD464A
:1028380080BD00BF106A0208206A020880B400AF99
:10284800034B01221A7000BFBD465DF8047B704738
:10285800D131002080B582B000AF0346FB71064835
:1028680017F046F8FB79002B02D0044817F04DF812
:1028780000BF0837BD4680BD282A0020242A002032
:1028880080B582B000AF7860064B1B689847024657
:102898007B689A607968044817F090F900BF083798
:1028A800BD4680BD28040020940B002080B483B06E
:1028B80000AF78607B68044A9B1ADB0818460C371F
:1028C800BD465DF8047B70472869020880B500AFF3
:1028D8000248FFF7EBFF0346184680BD106A02085E
:1028E80080B485B000AF03463960FB71184BFB60BC
:1028F8001BE0FB689B689B68DAB2FB689B681B68F7
:10290800DBB21344FB72FA79FB7A9A420AD2FB686B
:102918009B689B68DBB2FA79D31ADAB23B681A7003
:10292800FB680FE0FB681833FB60FB68094A9342B9
:1029380034BF01230023DBB2002BDAD13B6800222D
:102948001A70002318461437BD465DF8047B70479B
:10295800206A0208206A020880B58AB002AF0346DE
:102968003960FB711C4BDB693B61FB793B733B684E
:102978009BB2FB81FB6807F114021946164817F051
:10298800E8FA034683F00103DBB2002B1FD007F1FE
:102998000B02FB7911461846FFF7A2FFF861FB7A94
:1029A80018463B689AB2796907F1100300930B4601
:1029B8000146F86917F050F9B861BB69002B01DAD4
:1029C800002305E07B691946034817F045FB7B693E
:1029D80018462037BD4680BD302A002080B582B019
:1029E80000AF786039607B68DBB2184617F004F9ED
:1029F8000346002B0DD0786817F05CF902463B6857
:102A0800934204D2084A3B6852F8333008E0002366
:102A180006E07B68DBB239681846FFF79DFF03467E
:102A280018460837BD4680BD2869020880B483B0BF
:102A380000AF78607B68044A9B1ADB0818460C379D
:102A4800BD465DF8047B70472869020880B590B0E0
:102A580004AFB9607B600346FB731346BB733B6CE2
:102A6800002B0BD07B6C3B613B6900933B6CFA6B92
:102A780010210020FFF73AF9F86201E00023FB6219
:102A8800FB6AB3F5006F1DD30323012B73D9012310
:102A9800FB77FB7F83F00103DBB2002B6BD1374B55
:102AA800196840F2FF730393354B02930023019397
:102AB8000023009300230222002017F0DFFA0023EE
:102AC800BB6158E0FA6ABB6B1344173323F0070362
:102AD80003339B08BB623B7D6FF300033B753B7D73
:102AE8006FF341033B753B7D6FF382033B75FB7BC3
:102AF80003F00703DAB23B7D62F3C5033B75BB7B8A
:102B080003F00703DAB2BB8A62F38813BB82FB6A5D
:102B1800C3F30A039AB27B6962F353237B61BB6BED
:102B2800C3F30B039AB2FB8A62F30F13FB82BB6AEF
:102B38009B000733DB08DB00ADEB030D04AB073369
:102B4800DB08DB007B627B6A10333B623B6A002B4D
:102B58000BD03B6C002B08D0F96A7B6C00933B6C64
:102B6800FA6B386AFFF7C2F8F8627B687A69B96865
:102B7800786A17F0D4FA3037BD4680BD2C0400209F
:102B88002071020880B584B000AFF860B9607A603F
:102B98007B68BA680449F86816F0D5FD03461846FC
:102BA8001037BD4680BD00BF0147000880B483B020
:102BB80000AF78607B680133044A13441B781846D9
:102BC8000C37BD465DF8047B704700BF38AE02087D
:102BD8000EB480B585B000AF78600023FB6007F1C4
:102BE8002003BB60BB68FA697968064801F084FD78
:102BF800F860FB6818461437BD46BDE8804003B04E
:102C0800704700BF0FA3010880B592B004AFF86009
:102C1800B9607A60BB6803F04403002B14BF01233A
:102C2800002387F8333097F8333083F00103DBB2A1
:102C3800002B06D07A683849F868FFF7C9FF78632F
:102C480065E0364B1B68002B5FD0354B1B687A68F4
:102C5800B2FBF3F37B60314B1B687A68B2FBF3F38A
:102C6800FB622E4B1A687B68B3FBF2F101FB02F2A0
:102C78009B1ABB62BB6A4FF47A7203FB02F2274BC2
:102C88001B68B2FBF3F37B62BB6A4FF47A7203FBF7
:102C980002F2224B1B68796A01FB03F3D31A4FF443
:102CA8007A7203FB02F21D4B1B68B2FBF3F33B6223
:102CB800FB6AFB61FB691B4AA2FB0323DB0ABB61BE
:102CC800BB694FF4616202FB03F3FA69D31AFB6133
:102CD800FB69154AA2FB03235B097B617A691346EA
:102CE8001B019B1A9B001A46FB699B1AFB613B6AF6
:102CF80002937B6A0193FB6900937B69BA690B496C
:102D0800F868FFF765FF786301E000237B637B6B5E
:102D180018463837BD4680BD78710208502A002011
:102D2800542A0020C5B3A291898888888471020832
:102D380080B586B000AFF8607B600B46FB72134627
:102D4800BB72FB7A002B14D0BB7A002B0AD00B4A3B
:102D58007B6852F82330002B04D0084A7B6852F86D
:102D6800233000E0064B7B617A690649F868FFF773
:102D78002FFF00BF1837BD4680BD00BF2C9E02083C
:102D8800A0710208A871020880B584B000AF78600D
:102D9800084611461A460346FB700B46BB7013469D
:102DA8007B700023FB60FB78002B0CD0194A7B6AF0
:102DB80052F823301A4618497868FFF709FF024687
:102DC800FB681344FB60BB69002B08D0BA69134940
:102DD8007868FFF7FDFE0246FB681344FB60FB6959
:102DE800002B11D0BB78002B04D07B6A042B01D1B7
:102DF8000B4B00E00B4BFA6919467868FFF7E8FEC1
:102E08000246FB681344FB60FB6818461037BD4652
:102E180080BD00BF189E0208AC710208B471020898
:102E2800B8710208BC71020880B582B000AF786042
:102E380039603B6803F01003002B0ED13B6803F0A8
:102E48002003002B04D007497868FFF7C1FE05E08E
:102E580005497868FFF7BCFE00E000BF0837BD46AB
:102E680080BD00BFC4710208C871020880B588B06F
:102E780000AFF860B9607A603B60B96AF868FFF73C
:102E8800D3FF0023FB6106E03749F868FFF7A0FE8F
:102E9800FB690133FB61FA693B689A42F4DB002362
:102EA800BB6120E0BB69002B08DDBB6903F00703A9
:102EB800002B03D12C49F868FFF78AFEBB697A68B2
:102EC8009A4209D9BB69BA6813441B781A4627493C
:102ED800F868FFF77DFE03E02549F868FFF778FEFC
:102EE800BB690133BB61BB690F2BDBDD2149F86886
:102EF800FFF76EFE00237B612DE07B69002B08DD68
:102F08007B6903F00703002B03D11749F868FFF723
:102F18005FFE7B697A689A4216D97B69BA6813445E
:102F28001B78FB74FB7C1846FFF740FE034603F052
:102F38009703002B01D0FB7C00E02E231A460E4994
:102F4800F868FFF745FE03E00749F868FFF740FE19
:102F58007B6901337B617B690F2BCEDD00BF00BF2E
:102F68002037BD4680BD00BFCC710208D071020871
:102F7800D8710208DC710208E071020890B58DB0C2
:102F880004AFF860B9603B601346FB710023FB6136
:102F9800BB6803F00203002B14BF01230023FB7658
:102FA800BB6803F00103002B14BF01230023BB7689
:102FB800BB6803F00803002B14BF012300237B76B2
:102FC8000023FB74BB6803F48073002B14BF012338
:102FD80000233B7616F0FFFD78617B69002B09D052
:102FE8007A691E49F868FFF7F3FD03461A46FB693C
:102FF8001344FB61FB7E002B09D03A68B968F86876
:10300800FFF702FE03461A46FB691344FB6197F873
:103018003C20BB7E1946F86817F0A2F9FC7C3B7E81
:10302800002B01D0002300E07B6B97F83C20F87957
:10303800797E0392BA6B029201933B6B009323460D
:103048000246F868FFF7A0FE03461A46FB691344D8
:10305800FB61FB6918462437BD4690BDEC71020838
:1030680080B58CB004AFF860B9607A603B6097F8BF
:103078002C30002B0CBF01230023FB75FB7D83F054
:103088000103DBB2002B12D097F82C300393BB6AF4
:1030980002933B6801937B680093BB680022F96B3D
:1030A800F868FFF76BFFF8611A4BBB6108E0002373
:1030B800FB613B68012B01D1164B00E0164BBB614D
:1030C8003B6B002B05D03A6BF968B869FFF75AFDDE
:1030D8003861BB6B002B08D0FA69FB6B0093134671
:1030E800BA6B796BF86817F05DF9FB7D83F0010323
:1030F800DBB2002B06D097F82C301A46F96BF8682B
:1031080017F074F9F86817F0E5F800BF2037BD46E6
:1031180080BD00BF0FA301083FA3010880B483B09E
:1031280000AF78600C4B01221A6007E07B685B08EF
:103138007B60094B1B685B00074A13607B68074A82
:103148009342F3D8064A7B68136000BF0C37BD462C
:103158005DF8047B704700BF542A002040420F00EE
:10316800502A002080B588B000AFF860B9607A6056
:103178007B68BB61BB695B687B61154B3B613869E8
:1031880017F02EFA0346002B01DAB9681AE000237B
:10319800FB610AE0FA68FB6913441B781946386931
:1031A80017F00FFAFB690133FB61FA69BB689A42B1
:1031B800F0D300BF4FF00A024FF00003386917F050
:1031C8001AFAB9680B4618462037BD4680BD00BFBD
:1031D8001462020880B586B000AF78607B685B68CF
:1031E8001B683B61064BFB603B695B687B613B6925
:1031F8001B683969184617F0A3F91837BD4680BD12
:103208001462020880B586B000AF78607B685B689E
:103218001B687B617B695B683B61074BFB603B69B3
:1032280001221A757B691B68184617F0ACF900BFB4
:103238001837BD4680BD00BF14620208F0B59DB0C6
:103248000CAF78600323002B20D00123FB77FB7F92
:1032580083F00103DBB2002B18D1764B18687B682A
:103268001B687A68526879688968059104920393A3
:10327800714B029300230193002300930023012242
:103288000146002017F0F9F90023BB610323002B46
:1032980020D00123FB75FB7D83F00103DBB2002BFB
:1032A80018D1644B18687B68DB687A68126979689A
:1032B8004969059104920393604B0293002301939B
:1032C80000230093002301220146002017F0D5F9BE
:1032D80000233B610323002B19D00123FB73FB7BE5
:1032E80083F00103DBB2002B11D1524B19687B68C4
:1032F800DB690393524B029300230193002300934D
:1033080000230122002017F0B8F90023FB630023F3
:10331800BB6348E00323002B42D0012387F8273002
:1033280097F8273083F00103DBB2002B38D1414BEB
:103338001B683B607B68BA6B083253F82230BA6B63
:103348000132B96B481C7968083051F82010B86B05
:103358000230BC6BA51C7C68083554F82540BD6B51
:103368000335BE6B06F1030C7E680CF1080C56F8A9
:103378002C600A9609950894079006910592049383
:10338800BB6B03932F4B02930023019300230093FD
:10339800002301223968002017F06FF900233B62EF
:1033A800BB6B0433BB63BB6B0F2BB3D90323002B5D
:1033B8001BD0012387F8373097F8373083F00103A3
:1033C800DBB2002B11D11B4B19687B681B6E039372
:1033D8001D4B029300230193002300930023012235
:1033E800002017F04AF900233B630323002B1CD06D
:1033F800012387F82F3097F82F3083F00103DBB2D1
:10340800002B12D10B4B19687B689B6903930F4BF8
:10341800029300230193002300930023012200203C
:1034280017F02BF90023BB6200BF00BF4437BD462D
:10343800F0BD00BF3804002084730208B47302088A
:10344800E4730208F4730208387402084874020826
:1034580080B58AB004AF786039603B68002B02D031
:103468003868FFF7EBFE7B68012B21D1EFF305836A
:10347800BB60BB68103B7B610323002B18D0012382
:10348800FB74FB7C83F00103DBB2002B10D10C4BE7
:1034980019687B6903930B4B029300230193002364
:1034A800009300230122002017F0E7F80023FB60B7
:1034B800396878680FF0CEFE00BF1837BD4680BD6A
:1034C800380400207874020880B500AF034B1B68ED
:1034D800984700F035F800BF80BD00BF3C040020CD
:1034E80030BFFFF7FDBF00BF80B400AF034A044BF5
:1034F80013441846BD465DF8047B70470000000081
:103508000400000080B582B000AF7860094B1A460D
:103518000949786822F0F0FA064A7B6813447B6010
:10352800064B1A460021786822F0F4FA00BF0837E3
:10353800BD4680BD00000000206A020804000000AB
:1035480080B400AF084B1A6A074B9B689A4205D0B3
:10355800064B5B68054A43F08053536000BFBD4685
:103568005DF8047B704700BF4025002000ED00E0B7
:1035780080B59AB004AFF860B9607A6010237B65B3
:103588006FF015033B650323002B18D0012387F840
:103598004F3097F84F3083F00103DBB2002B0ED188
:1035A8008C4B19688C4B02930023019300230093E2
:1035B80000230122002017F0B2F80023BB64874BD8
:1035C8009B6A03F01003002B1DD011237B65032396
:1035D800002B18D0012387F8473097F8473083F03D
:1035E8000103DBB2002B0ED17A4B19687C4B029396
:1035F800002301930023009300230122002017F0E9
:103608008EF800233B64754B9B6A03F00803002B7C
:103618001DD012237B650323002B18D0012387F8C4
:103628003F3097F83F3083F00103DBB2002B0ED117
:10363800684B19686B4B0293002301930023009396
:1036480000230122002017F06AF80023BB63634BB4
:103658009B6A03F00203002B4FD013237B650323DF
:10366800002B18D0012387F8373097F8373083F0CC
:103678000103DBB2002B0ED1564B19685A4B02934B
:10368800002301930023009300230122002017F058
:1036980046F800233B63514B5B6BFB624F4B9B6AC5
:1036A80003F08003002B28D0FB6A3B650323002B23
:1036B8001AD0012387F82B3097F82B3083F00103B9
:1036C800DBB2002B10D1434B19683B6D0393474B7A
:1036D800029300230193002300930023012200207A
:1036E80017F01DF800237B62BB68002B05D03B4B0D
:1036F8009B6A3A4A23F080039362384B9B6A03F033
:103708000103002B1DD014237B650323002B18D045
:10371800012387F8233097F8233083F00103DBB2C5
:10372800002B0ED12B4B1968314B029300230193C8
:103738000023009300230122002016F0F0FF00234D
:10374800FB61264B9B6A03F02003002B1BD015233B
:103758007B650323002B16D00123FB76FB7E83F0C9
:103768000103DBB2002B0ED11A4B1968214B0293CF
:10377800002301930023009300230122002016F068
:10378800CEFF00237B61154B9B6A03F01003002BCF
:1037980001D1124B9B6A114B9B6A03F02003002B4B
:1037A80005D00E4B5B6A0D4A23F4005353620B4B52
:1037B8009B6A0A4A43F0FF0393620121F86816F0F6
:1037C800D7FF03461A467B681A707B6D1846583730
:1037D800BD4680BD400400208C74020800ED00E066
:1037E800A4740208D8740208EC740208047502086C
:1037F8001C7502083C75020880B59AB004AFF860E1
:10380800B9607A6016237B650323002B18D0012347
:1038180087F8533097F8533083F00103DBB2002B5D
:103828000ED1934B1968934B029300230193002305
:10383800009300230122002016F071FF0023FB648F
:103848008D4B9B6A03F48053002B1DD017237B6597
:103858000323002B18D0012387F84B3097F84B30FF
:1038680083F00103DBB2002B0ED1814B1968834B27
:1038780002930023019300230093002301220020D8
:1038880016F04DFF00237B647B4B9B6A03F40063B7
:10389800002B1DD018237B650323002B18D0012390
:1038A80087F8433097F8433083F00103DBB2002BED
:1038B8000ED16F4B1968724B0293002301930023BA
:1038C800009300230122002016F029FF0023FB6348
:1038D800694B9B6A03F40073002B4DD019237B6559
:1038E8000323002B18D0012387F83B3097F83B308F
:1038F80083F00103DBB2002B0ED15D4B1968614BDD
:103908000293002301930023009300230122002047
:1039180016F005FF00237B63574B9B6B3B63564BAD
:103928009B6A03F40043002B26D00323002B1AD0F4
:10393800012387F82F3097F82F3083F00103DBB28B
:10394800002B10D14A4B19683B6B03934E4B0293E3
:10395800002301930023009300230122002016F086
:10396800DEFE0023BB62BB68002B05D0424B9B6A7E
:10397800414A23F4004393623F4B9B6A03F48063FC
:10398800002B1DD01A237B650323002B18D001239D
:1039980087F8273097F8273083F00103DBB2002B34
:1039A8000ED1334B1968394B02930023019300233E
:1039B800009300230122002016F0B1FE00233B6291
:1039C8002D4B9B6A03F48073002B1CD01B237B6553
:1039D8000323002B39D00123FB75FB7D83F0010302
:1039E800DBB2002B31D1224B1968294B02930023FB
:1039F80001930023009300230122002016F08FFE7C
:103A080000233B6121E01C4B9B6A03F40053002B0D
:103A18001BD01C237B650323002B16D00123FB77C7
:103A2800FB7F83F00103DBB2002B0ED1104B19682A
:103A3800184B0293002301930023009300230122D3
:103A4800002016F06CFE0023BB610B4B9B6A0A4AF0
:103A580043F47F4393620121F86816F089FE034618
:103A68001A467B681A707B6D18465837BD4680BD6C
:103A7800400400206C75020800ED00E0847502081F
:103A8800D874020898750208B4750208CC75020843
:103A9800E87502083C75020880B596B004AF7860F6
:103AA8001D237B640323002B18D0012387F84330A0
:103AB80097F8433083F00103DBB2002B0ED1784B2B
:103AC8001968784B02930023019300230093002385
:103AD8000122002016F023FE0023FB63724B9B6A31
:103AE80003F00073002B1DD01E237B640323002BDF
:103AF80018D0012387F83B3097F83B3083F0010357
:103B0800DBB2002B0ED1664B1968684B0293002379
:103B180001930023009300230122002016F0FFFDEB
:103B280000237B63604B9B6A03F08073002B1DD0DE
:103B38001F237B640323002B18D0012387F833301D
:103B480097F8333083F00103DBB2002B0ED1544BCE
:103B58001968574B02930023019300230093002315
:103B68000122002016F0DBFD0023FB624E4B9B6A0E
:103B780003F40023002B1DD021237B640323002B97
:103B880018D0012387F82B3097F82B3083F00103E6
:103B9800DBB2002B0ED1424B1968464B029300232F
:103BA80001930023009300230122002016F0B7FDA3
:103BB80000237B623C4B9B6A03F48023002B1DD0BF
:103BC80022237B640323002B18D0012387F823309A
:103BD80097F8233083F00103DBB2002B0ED1304B72
:103BE8001968354B029300230193002300930023A7
:103BF8000122002016F093FD0023FB612A4B9B6AEB
:103C080003F40033002B1BD023237B640323002BF6
:103C180016D00123FB76FB7E83F00103DBB2002B79
:103C28000ED11F4B1968254B0293002301930023E3
:103C3800009300230122002016F071FD00237B6110
:103C4800194B9B6A03F48033002B1BD024237B641D
:103C58000323002B16D00123FB74FB7C83F00103A4
:103C6800DBB2002B0ED10E4B1968154B02930023C3
:103C780001930023009300230122002016F04FFD3A
:103C88000023FB60084B9B6A074A6FEA03436FEA0D
:103C9800134393627B6C18464837BD4680BD00BF0E
:103CA800400400200076020800ED00E018760208C3
:103CB8002C76020848760208687602089076020890
:103CC800AC76020880B588B004AF786039603B688C
:103CD80000221A700323002B17D00123FB73FB7BF0
:103CE80083F00103DBB2002B0FD10A4B19680A4B92
:103CF8000293002301930023009300230122002054
:103D080016F00DFD0023BB6000BF00BF1037BD4695
:103D180080BD00BF40040020D876020880B485B07A
:103D280000AF78607B689B69FB601B4B5B691A4A34
:103D380043F480735361BFF34F8F00BF00BF00BFD0
:103D4800BFF36F8F00BF00BF00BFFB6833F8023CB2
:103D58007B81114B5B69104A23F480735361BFF375
:103D68004F8F00BF00BF00BFBFF36F8F00BF00BF02
:103D780000BF7B8903F47F43B3F55F4F05D17B898F
:103D8800DBB2022B01D1012300E0002318461437CF
:103D9800BD465DF8047B704700ED00E080B592B049
:103DA80004AF786039600023FB620323002B18D02E
:103DB800012387F8333097F8333083F00103DBB2FF
:103DC800002B0ED1634B1968634B029300230193B8
:103DD8000023009300230122002016F0A0FC0023FA
:103DE8007B633B6800221A705C4BDB6A03F00203BA
:103DF800002B1CD00323002B00F0A7800123FB74A9
:103E0800FB7C83F00103DBB2002B40F09E80514B1A
:103E18001968534B02930023019300230093002356
:103E28000122002016F07BFC0023FB608DE04B4B49
:103E3800DB6A002B1BDA0323002B00F086800123AA
:103E4800FB76FB7E83F00103DBB2002B7DD1414B77
:103E58001968444B02930023019300230093002325
:103E68000122002016F05BFC00237B616DE03B4BD8
:103E7800DB6A03F08043002B67D00323002B18D0A4
:103E8800012387F82B3097F82B3083F00103DBB23E
:103E9800002B0ED12F4B1968334B0293002301934B
:103EA8000023009300230122002016F038FC002391
:103EB8007B627868FFF732FF0346002B22D003238A
:103EC800002B1BD0012387F8233097F8233083F089
:103ED8000103DBB2002B11D11E4B19687B681B68EC
:103EE8000393224B029300230193002300930023A2
:103EF8000122002016F013FC0023FB617B681B687D
:103F0800FB6222E0154B9B6ADBB2002B06D03A68B5
:103F180001217868FFF72CFBF86216E00F4B9B6ACB
:103F280003F47F43002B07D03A6801217868FFF734
:103F380063FC0346FB6208E0084B9B6AB3F5803FCD
:103F480003D37868FFF7A8FDF862FB6A184638378C
:103F5800BD4680BD40040020FC76020800ED00E06C
:103F68001477020838770208487702086877020849
:103F780080B58AB006AF786039600323002B21D062
:103F88000123FB73FB7B83F00103DBB2002B19D108
:103F98000E4B19683B680F2B01DC0D4B00E00D4BF5
:103FA8003A68103A049203930B4B0293002301934F
:103FB8000023009300230122002016F0B0FB002309
:103FC800BB6000BF00BF1037BD4680BD4004002065
:103FD800847702089C770208B877020880B586B013
:103FE80000AFF860B9607A6000237B617B680022CB
:103FF8001A70BB68033B092B35D801A252F823F08D
:10400800314000083D4000084B4000085B40000874
:104018006F4000086F4000086F4000086F400008BC
:104028006F400008654000087968F868FFF7B6FE39
:1040380078611DE07A680021F868FFF799FA7861DD
:1040480016E07A680021F868FFF7D6FB03467B6123
:104058000EE0F868FFF720FD786109E07968F868F4
:10406800FFF730FE04E0B968F868FFF781FF00BF8A
:104078007B681B7883F00103DBB2002B03D0B9689F
:10408800F86816F06AFB7B6918461837BD4680BD8C
:1040980080B58CB004AFF860B9607A603B600023EB
:1040A800FB760023FB613B6800221A707B6803F0F3
:1040B8007F43B3F17F4F01D0002339E07B6803F0E1
:1040C8000803002B20D07B6803F00403002B1BD1CE
:1040D8000323002B16D00123BB76BB7E83F001039C
:1040E800DBB2002B0ED1144B1968144B029300233A
:1040F80001930023009300230122002016F00FFBF8
:1041080000237B61002313E0FB7E83F00103DBB215
:10411800002B0CD07B6803F00803002B02D0BB688F
:10412800FB6104E0FB68FB613B6801221A70FB69D4
:1041380018462037BD4680BD40040020CC770208D1
:1041480080B5A6B000AFF860B9607A603B60002324
:10415800C7F894302E4B5B68C3F30803C7F8903058
:104168000023C7F88030D7F88030FB67FB6F83F3F4
:10417800118800BFBFF36F8F00BF00BF07F17A033C
:104188007A68B968F868FFF783FFC7F88C00D7F832
:104198008C30C7F888307B68C7F8843000BF07F1D7
:1041A8007B031A46D7F89010D7F88C00FFF716FF54
:1041B800C7F8940097F87B30002B25D107F110033E
:1041C8006822D7F88C10184621F096FC97F87A30B8
:1041D800002B0BD0FB6AC3F30803002B0CD1FB6A3E
:1041E8006FEA53236FEA4323FB6205E0FB6A23F47B
:1041F800FF7323F00103FB6207F110031946D7F898
:104208009400FFF725F900E000BF9837BD4680BD50
:1042180000ED00E080B400AF084B5B69074A43F04B
:1042280010035361054B5B69044A23F0080353618B
:1042380000BFBD465DF8047B704700BF00ED00E09D
:10424800EFF30880EFF3098101B57246FFF778FFB5
:1042580001BD00BF0E4880F30888102080F3118844
:104268000C484FF0AA014FF448621FF0D0F90948F2
:104278004FF44861401880F30988EFF31480022155
:10428800084380F31488BFF36F8F16F0AAFA000072
:1042980060640020A065002080B584B000AF78601D
:1042A800114B9B687A689A4216D1EFF30583FB603D
:1042B800FB68002B14BF01230023DBB2002B0BD0BB
:1042C8000A4B5B68094A43F080535360074B5B6AAB
:1042D800064A23F400435362786812F017FA00BFC5
:1042E8001037BD4680BD00BF4025002000ED00E02E
:1042F80001B520F0D8FBBDE8014024498A6882F85E
:1043080011E14FF040001044EFF3098C80E8F01FF2
:104318001EF0100F03D102F1D00080EC108A10209B
:1043280080F31288BFF36F8F194F4FF000660A6A47
:104338008A603E60D2F8C400164C206092F911E100
:10434800D2F8C8000023C2F8C83080F311881EF0E4
:10435800100F03D00023E1EE103A03E002F1D00081
:1043680090EC108AEFF3148323F0040383F314888A
:10437800BFF36F8F02F1400090E8F01F8CF30988BB
:1043880001B510F03FFFBDE801407047402500200F
:1043980004ED00E0802A00201EF0040F0CBFEFF3AC
:1043A8000880EFF30980816911F8021C0229FFD007
:1043B80001B5724616F07FF901BD00BF80B483B025
:1043C80000AF0346FB7197F90730002B0BDBFB7935
:1043D80003F01F02074997F907305B09012000FA2B
:1043E80002F241F8232000BF0C37BD465DF8047B7C
:1043F800704700BF00E100E080B483B000AF03461F
:104408003960FB7197F90730002B0ADB3B68DAB299
:104418000C4997F907301201D2B20B4483F80023F4
:104428000AE03B68DAB20849FB7903F00F03043B62
:104438001201D2B20B441A7600BF0C37BD465DF8A4
:10444800047B704700E100E000ED00E080B400AFBD
:10445800094B0A4A23F07F039360BFF34F8F00BFD5
:1044680000BF00BFBFF36F8F00BF00BF00BF00BF1A
:10447800BD465DF8047B70470000000800ED00E0D1
:1044880080B483B000AF154BD3F88830134A23F4B7
:104498007003C2F88830114BD3F888300F4A43F4C0
:1044A800A003C2F888300E4B4FF040425A60BFF369
:1044B8004F8F00BF00BF00BFBFF36F8F00BF00BFAB
:1044C80000BF00237B607B68E1EE103A00BF00BFAD
:1044D8000C37BD465DF8047B704700BF00ED00E077
:1044E80030EF00E080B487B000AFF860B9607A6060
:1044F8003B607B68203B7B61164A7B699A617B69DC
:104508009B6923F001027B699A613A687B691A60AA
:104518003A6A7B695A607A6A7B699A60BA6A7B6987
:10452800DA607B694FF08072DA617A69FB681A6633
:10453800FB680022C3F8C820FB680022C3F81021DA
:10454800FB68FD2283F8112100BF1C37BD465DF8CA
:10455800047B7047E524000880B48DB000AF786014
:10456800264B9B687A689A4202D06FF015033FE0A9
:10457800EFF30583BB62BB6A002B14BF0123002342
:10458800DBB2002B02D06FF0150331E0EFF311839B
:104598007B617B693B611023FB60FB6883F31288B6
:1045A80000BFBFF36F8F00BF3B69FB627B681B7B5B
:1045B80023F00203DAB27B681A73EFF31483BB614A
:1045C800BB6923F00403FB61FB6983F31488BFF321
:1045D8006F8F00BF00BFFB6A7B627B6A3B623B6AEE
:1045E80083F3118800BFBFF36F8F00BF00BF0023A4
:1045F80018463437BD465DF8047B704740250020D7
:10460800F0B585B000AFF860B9607A6016F0F7F8D9
:104618000B4AFB689360FB68D3F8C430094A1360FF
:1046280010F0F0FD7D68BE682C4686F309880020EE
:10463800054B98472046002100220023034C2047C1
:1046480040250020802A00204BA80108E524000806
:1046580080B400AF034B10221A6100BFBD465DF85D
:10466800047B704700ED00E080B483B000AF0346E0
:104678003960FB7197F90730002B0ADB3B68DAB227
:104688000C4997F907301201D2B20B4483F8002382
:104698000AE03B68DAB20849FB7903F00F03043BF0
:1046A8001201D2B20B441A7600BF0C37BD465DF832
:1046B800047B704700E100E000ED00E080B584B0C5
:1046C80000AFEFF305837B607B68FB60FB68103B02
:1046D800FB60FB68DB00074A1344BB60BB685B6890
:1046E800BA68126810469847FEF72AFF00BF1037CD
:1046F800BD4680BDB464020880B58AB000AFF860DA
:10470800B9607A603B6007F1100300221A605A60B2
:104718009A60DA601A615A610223BB74084B7B61A4
:10472800FB683B62BB687B6207F110033A687968F3
:10473800184613F045FB034618462837BD4680BD8A
:10474800E7A8010880B582B000AF78603960044BF3
:104758001B6878689847002318460837BD4680BD0F
:10476800842A002080B483B000AF7860074A7B6851
:104778001360074B9B7843F00203DAB2044B9A703C
:1047880000BF0C37BD465DF8047B7047842A0020C3
:104798004404002080B582B000AF00237B600C4B3E
:1047A800073323F007037B60094B073323F0070324
:1047B800C3F1005303F500333B603A687968054854
:1047C80014F025FF002318460837BD4680BD00BFFA
:1047D800E0780020882A002080B483B000AF786099
:1047E800054B1A6804497B6813430B6000BF0C37FC
:1047F800BD465DF8047B7047003C014080B483B03F
:1048080000AF7860064B1A687B68DB4304491340A5
:104818000B6000BF0C37BD465DF8047B704700BFD6
:10482800003C014080B483B000AF7860054B9A68C3
:1048380004497B6813438B6000BF0C37BD465DF8A5
:10484800047B7047003C014080B483B000AF7860BF
:10485800064B9A687B68DB43044913408B6000BFB2
:104868000C37BD465DF8047B704700BF003C014033
:1048780080B483B000AF7860054BDA6804497B6880
:104888001343CB6000BF0C37BD465DF8047B70470F
:10489800003C014080B483B000AF7860064BDA6812
:1048A8007B68DB4304491340CB6000BF0C37BD462F
:1048B8005DF8047B704700BF003C014080B483B0C2
:1048C80000AF7860074B5A697B6813407A689A4250
:1048D8000CBF01230023DBB218460C37BD465DF838
:1048E800047B7047003C014080B483B000AF78601F
:1048F800044A7B68536100BF0C37BD465DF8047BF2
:10490800704700BF003C014080B487B000AF7860BA
:104918003960174A3B68DBB2023352F823203B6800
:104928001B0CDB4302EA03013B681B0C3B613B6940
:1049380093FAA3F3FB60FB687B617B69002B01D1D1
:10494800202303E07B69B3FA83F3DBB21A467B6862
:1049580003FA02F206483B68DBB20A43023340F826
:10496800232000BF1C37BD465DF8047B704700BF9D
:104978000038014080B487B000AF7860104A7B6887
:10498800DBB2023352F823207B681B0C13407A6891
:10499800120C3A613A6992FAA2F2FA60FA687A61FC
:1049A8007A69002A01D1202203E07A69B2FA82F2F8
:1049B800D2B2D34018461C37BD465DF8047B704719
:1049C8000038014080B588B000AF78601F4BBB61EC
:1049D800BB691B697B617B683B610023FB772BE02C
:1049E8003B691B781A46FB7F1344FB60FB68DBB20C
:1049F800184616F002F8B860B86815F0E7FF0346E5
:104A0800002B16D0B86815F0EDFF7B69FA6853F8EB
:104A18003230002B0CD07B69FA6853F83220796960
:104A2800FB68DB000B445B681946B868904700E0F8
:104A380000BFFB7F0133FB773B695B78FA7F9A42C3
:104A4800CED900BF00BF2037BD4680BD94600208A4
:104A580080B584B000AF0023FB600C4BBB603B46C5
:104A680000221A605A603B88442262F30B033B80A1
:104A78004FF480437B603B461946B86815F061FFE8
:104A8800F860FB6818461037BD4680BD54600208C0
:104A980080B485B000AF03463A60FB710B46BB712A
:104AA8000023FB600AE097F90720FB6813443A6883
:104AB80051B2084AD154FB680133FB6097F90630BC
:104AC800FA689A42EFDB00BF00BF1437BD465DF8B5
:104AD800047B70475404002080B582B000AF786032
:104AE800374B1B785BB2364A527851B206221846C9
:104AF800FFF7CEFF00220021062015F053FE314BB0
:104B08001B785BB22F4A527851B207221846FFF73A
:104B1800BFFF00220021072015F044FE2A4B1B7816
:104B28005BB2294A527851B208221846FFF7B0FF03
:104B380000220021082015F035FE244B1B785BB2BB
:104B4800224A527851B209221846FFF7A1FF0022E3
:104B58000021092015F026FE1D4B1B785BB21C4A6C
:104B6800527851B20A221846FFF792FF002200211C
:104B78000A2015F017FE174B1B785BB2154A5278BE
:104B880051B217221846FFF783FF00220021172091
:104B980015F008FE104B1B785BB20F4A527851B2E1
:104BA80028221846FFF774FF00220021282015F05C
:104BB800F9FDFFF74DFF034618460837BD4680BD8F
:104BC800749E0208789E02087C9E0208809E020855
:104BD800849E0208889E02088C9E020880B584B0D4
:104BE80000AF7860786815F017FF0346FB60084A45
:104BF800FB68134493F90030BB607868FFF7ECFD5D
:104C0800B86815F0C2FD00BF1037BD4680BD00BFB3
:104C18005404002080B582B000AF786039604FF44A
:104C28008011002015F0A6FE3B68032B26D801A2B0
:104C380052F823F04D4C00085B4C0008694C000802
:104C4800774C00087868FFF7FFFD7868FFF722FEC9
:104C580015E07868FFF7E6FD7868FFF71BFE0EE0C1
:104C68007868FFF705FE7868FFF7EEFD07E07868DB
:104C7800FFF7D8FD7868FFF7FBFD00E000BF0020D4
:104C880015F083FE00BF0837BD4680BD80B588B0EB
:104C980000AFF860B9607A60194BFB61FB691B696A
:104CA800BB61F86815F0B8FE03467B61BB697A6999
:104CB80053F83230BA689A4209D1BA697B69DB0085
:104CC80013445B687A689A4201D1002314E0BB69F7
:104CD8007A6953F83230002B02D06FF00F030BE0E3
:104CE800BB697A69B96843F83210BA697B69DB0035
:104CF80013447A685A60002318462037BD4680BDA1
:104D08009460020880B586B000AF78600C4B7B6178
:104D18007B691B693B61786815F07EFE0346FB6082
:104D28003B69FA68002143F832103A69FB68DB00F6
:104D3800134400225A6000BF1837BD4680BD00BF2B
:104D48009460020890B597B008AFF860B960C7E9F9
:104D58000023FB689B68FB62BB68002B02D16FF0E5
:104D6800150389E0BB685B7903F00103002B03D0CE
:104D78006FF060433B6302E040F2FF733B63BB6844
:104D88001A683B6BDB431340002B40D00323002BF6
:104D98003AD0012387F82B3097F82B3083F00103A2
:104DA800DBB2002B30D1364B1C68BB685B7903F053
:104DB8000103002B01D0334B00E0334BBA68527922
:104DC80002F00102002A01D01D2200E00B22B9687E
:104DD800497901F00101002901D0082100E00321EF
:104DE800B86800680690059104920393274B0293D4
:104DF8000023019300230093002301222146002071
:104E080015F0E9FE00237B626FF0150334E0BB6CFC
:104E1800002B25D107F1100301220021184615F0B7
:104E280059FEFB6A5C6907F110030193184B009364
:104E3800D7E90023B968F868A04778637B6B002B33
:104E480001D07B6B18E04FF0FF304FF0FF3107F1D6
:104E5800100402460B46204615F04CFE3B6A0BE058
:104E6800FB6A5C69FB6C0193BB6C0093D7E9002378
:104E7800B968F868A047034618463C37BD4690BD58
:104E88006404002024780208307802083C7802087C
:104E98001BAC0108F0B593B00AAFF860B9607A604E
:104EA8003B60FB689B683B61BB68002B02D03B689A
:104EB800002B02D16FF015036EE03B681B7A03F0FC
:104EC8000103002B03D06FF060437B6102E040F2E6
:104ED800FF737B613B681A687B69DB431340002BD7
:104EE80006D13B685A687B69DB431340002B4BD0E3
:104EF8000323002B45D00123FB76FB7E83F00103BF
:104F0800DBB2002B3DD1264B1E683B681B7A03F0B1
:104F18000103002B01D0234B00E0234B3A68127A9F
:104F280002F00102002A01D01D2200E00B2239689C
:104F3800097A01F00101002901D0082100E00321CC
:104F4800386800683C68247A04F00104002C01D019
:104F5800082400E003243D686D68089507940690CE
:104F6800059104920393114B0293002301930023AC
:104F78000093002301223146002015F02CFE002367
:104F8800FB616FF0150307E03B699C693B687A6831
:104F9800B968F868A047034618462437BD46F0BDEF
:104FA8006404002024780208307802086C7802082B
:104FB80080B489B000AFF860B9607A603B60BB6AC2
:104FC8009A88BB6A5B8813447B833B689A883B68F2
:104FD8005B8813443B83FB689AB2FB68B96801FBA2
:104FE80003F35349A1FB03139B099BB2D31ABB8359
:104FF8003B68DB88BA8B9A4202D83B68DB8806E0BC
:10500800BB6ADB88BA8B934228BF13469BB2BB832B
:10501800FB689AB2BB8BD31A9BB2013BFB83FA8B1A
:105028007B8B9A4210D97B8BFB83FB689AB2FB8BF4
:10503800D31A9BB2013BBB83BB6ADB88BA8B9A420B
:1050480017D96FF085036CE0FA8B3B8B9A4210D22C
:105058003B8BFB83FB689AB2FB8BD31A9BB2013B59
:10506800BB833B68DB88BA8B9A4202D26FF0850318
:1050780057E07B68BA8BDA80FB8B5B089AB23B6897
:105088005B889A4202D83B685B8808E0BB6A5A880A
:10509800FB8B5B089BB2934228BF13469BB27A688E
:1050A80053807B685B88FA8BD31A9AB27B689A80A4
:1050B8007B689A88BB6A9B889A420BD9BB6A9A8894
:1050C8007B689A807B689B88FA8BD31A9AB27B6834
:1050D8005A8010E07B689A883B689B889A420AD27B
:1050E8003B689A887B689A807B689B88FA8BD31A7E
:1050F8009AB27B685A80FB8B01334FF47A7202FBB9
:1051080003F31A46FB68B2FBF3F37B617A69BB6869
:105118009A4203D97A69BB68D31A02E0BA687B69F4
:10512800D31A18462437BD465DF8047B704700BF84
:10513800D34D621080B485B000AF78607B680C4AAC
:10514800934203D940F2EE23FB810AE07B68094AC7
:10515800934203D94FF44873FB8102E040F26B336A
:10516800FB81FB8918461437BD465DF8047B704700
:1051780000350C0020A1070080B594B006AFF86098
:10518800B9607A603B603B685B8801333A68928813
:1051980013443A68D2881344FB6207F114030022CF
:1051A8001A605A601A816FF000437B633B6C002BD6
:1051B80004D0B7F84430B3F57A7F02D36FF0150303
:1051C800B7E007F110031946F86815F0DEFCB8627D
:1051D800BB6A002B02D06FF00403AAE0B7F8443092
:1051E800002B05D1386CFFF7A5FF0346A7F844301C
:1051F8007B681B8918463A69FB6A396C01FB03F323
:10520800B2FBF3F3834238BF03463B633EE03B699E
:105218003A6B396C01FB02F2B3FBF2F101FB02F2CB
:105228009B1A002B2CD13A693B6B396C01FB03F3B9
:10523800B2FBF3F3FB62B7F8441007F114023B68C2
:1052480000937B68F86AFFF7B3FEB862BB6A002B6D
:1052580018DBBA6A7B6B9A4215DABB6A7B63FA8AF7
:10526800BB685A803A8BBB689A807A8BBB68DA80B5
:105278003B6B9AB2BB681A81BB6A002B0DD002E067
:1052880000BF00E000BF3B6B01333B633B681B89F9
:105298001A463B6B9342BADD00E000BF7B6B002BE4
:1052A8001FD00323032B1CD9012387F8273097F835
:1052B800273083F00103DBB2002B12D11F4B196892
:1052C8007B6B04931E4B03931E4B0293082301939D
:1052D8000023009300230422002015F07CFC002307
:1052E8003B62BB68DB885B089AB2BB689B889342C9
:1052F80028BF13469AB2BB681A80BB681A887B68B5
:105308001B889A4202D87B681B8807E03B681A888A
:10531800BB681B88934228BF13469BB2BA681380A8
:105328007B6B6FF00042934201D07B6B01E06FF022
:10533800850318463837BD4680BD00BF6404002089
:10534800909E0208D478020880B588B002AFF86051
:10535800B9607A607B80F86815F025FC7861F86898
:1053680015F02DFC38617B680A4A934202D96FF028
:1053780015030AE07B8801937B6800933B697A698F
:10538800B968F868FFF7F8FE034618461837BD46AF
:1053980080BD00BF40420F0080B598B006AF78606E
:1053A8007B681B69FB637B685B68BB63BB6B5B6982
:1053B8007B6300233B6461E07B6B03F5D873BB62BE
:1053C800BB6A5B681B0ADBB27B620323032B1CD915
:1053D800012387F8233097F8233083F00103DBB2E9
:1053E800002B12D13C4B19687B6A04933B4B039307
:1053F8003B4B0293082301930023009300230422CC
:10540800002015F0A9FD0023FB6107F108031946E8
:10541800B86A15F0D8FD7B6A062B0DDCFA6B7B6A3F
:1054280020339B0013445B683B64FB6B7A6A36321B
:1054380053F822307B6412E07B6A222B0FDC7B6AF4
:10544800073BBB61FA6BBB6912339B0013445B6873
:105458003B64FB6BBA69283253F822307B643B6C9F
:10546800002B05D007F108013B6C7A6C78689847E7
:105478007B6BDB6843F020027B6BDA607B6BDB685D
:1054880003F00303002B97D17B6BDB6803F0100359
:10549800002B1CD00323002B19D0012387F83330AD
:1054A80097F8333083F00103DBB2002B0FD10A4B9E
:1054B80019680C4B029300230193002300930023E7
:1054C8000122002015F048FD0023FB62FFE700BF22
:1054D8004837BD4680BD00BF68040020449F0208CD
:1054E800047902082079020880B584B000AF78609A
:1054F8007B681B6843F001027B681A6015F02FFC7B
:10550800F86010E015F02BFC0246FB68D31A0B4A32
:10551800934208D97B681B6823F001027B681A60F4
:105528006FF00A0306E07B685B6803F00103002B59
:10553800E8D0002318461037BD4680BD80A2190068
:1055480080B584B000AF78607B681B6823F00102E7
:105558007B681A6015F003FCF8600AE015F0FFFBA1
:105568000246FB68D31A084A934202D96FF00A032D
:1055780006E07B685B6803F00103002BEED1002393
:1055880018461037BD4680BD80A2190080B584B08A
:1055980000AF78607B681B6823F002027B681A60A2
:1055A80015F0DDFBF8600AE015F0D9FB0246FB6850
:1055B800D31A084A934202D96FF00A0306E07B68BF
:1055C8005B6803F00203002BEED100231846103766
:1055D800BD4680BD80A2190080B58EB004AF78604A
:1055E8007B685B683B627B681B69FB613B6A5B6944
:1055F800BB6100237B62FB6903F110014FF0FF32AE
:105608004FF0FF33084615F0BDFBFB691B79002BF3
:1056180003D06FF077037B625EE03B6A1B68002B68
:1056280029D03B6A1A68FB691B681946104615F0B1
:1056380010FC78627B6A002B1DD00323002B19D045
:105648000123FB75FB7D83F00103DBB2002B11D135
:10565800274B19687B6A0393264B02930023019317
:105668000023009300230122002015F075FC00237D
:105678003B6131E030E0B869FFF762FF78627B6A2E
:10568800002B26DA0323002B16D00123FB73FB7BA8
:1056980083F00103DBB2002B0ED1154B1968164BB2
:1056A800029300230193002300930023012200208A
:1056B80015F052FC0023BB603B6A1B68002B04D02A
:1056C8003B6A1B68184615F0D4FB6FF004037B6235
:1056D80002E0FB6901221A71FB691033184615F0C4
:1056E80061FB796A0B4618462837BD4680BD00BF66
:1056F80068040020347902086079020880B58EB009
:1057080004AF78607B685B683B627B681B69FB6100
:105718003B6A5B69BB6100237B62FB6903F1100193
:105728004FF0FF324FF0FF33084615F02BFBFB69B3
:105738001B7983F00103DBB2002B03D06FF07703F2
:105748007B6272E0B869FFF7CFFE78627B6A002B54
:105758001DDA0323002B16D00123FB73FB7B83F098
:105768000103DBB2002B0ED1354B1968354B029380
:10577800002301930023009300230122002015F049
:10578800EBFB0023BB606FF004037B624DE0FB6919
:1057980034336FF072021946786815F0FBFBFB6929
:1057A8003C336FF072021946786815F0F3FBFB6919
:1057B80044336FF072021946786815F0EBFBBB6949
:1057C8009B6843F0801343F40043BA6993603B6AD3
:1057D8001B68002B26D03B6A1B68184615F049FB4E
:1057E80078627B6A002B1DD00323002B19D001237C
:1057F800FB75FB7D83F00103DBB2002B11D1104B4D
:1058080019687B6A0393104B0293002301930023CA
:10581800009300230122002015F09EFB00233B612A
:1058280003E002E0FB6900221A71FB691033184695
:1058380015F0B8FA796A0B4618462837BD4680BD78
:10584800680400207C7902083479020880B590B099
:1058580006AF786039600B237B627B685B683B62CC
:105868003B6A5B69FB617B681B69BB610323032B94
:105878001AD90123FB75FB7D83F00103DBB2002BF2
:1058880012D1464B19683B680493454B0393454B2B
:10589800029308230193002300930023042200208D
:1058A80015F05AFB00233B617B6ADA433B681340DF
:1058B800002B1ED00323002B18D00123FB73FB7B86
:1058C80083F00103DBB2002B10D1344B19683B681D
:1058D8000393354B02930023019300230093002385
:1058E8000122002015F038FB0023BB606FF0850112
:1058F8004FE0BB691B79002B02D06FF00F0148E025
:10590800BB6903F110014FF0FF324FF0FF33084637
:1059180015F038FA3B6803F00103002B06D0FB6949
:10592800DB6943F08042FB69DA6105E0FB69DB690A
:1059380023F08042FB69DA613B6803F00203002B25
:1059480006D0FB69DB6943F00042FB69DA6105E0D8
:10595800FB69DB6923F00042FB69DA613B6803F00D
:105968000803002B06D0FB691B6843F01002FB6993
:105978001A6005E0FB691B6823F01002FB691A60D6
:10598800BB693A681A60BB691033184615F00AFA01
:1059980000210B4618462837BD4680BD6804002004
:1059A800609F020898790208A879020880B586B035
:1059B80000AF786039607B685B687B617B695B6995
:1059C8003B617B681B69FB60FB6803F110014FF0CA
:1059D800FF324FF0FF33084615F0D4F9FB681B7906
:1059E800002B07D0FB681033184615F0DBF96FF071
:1059F8000F0126E03B69DA69144B13403A681288B4
:105A0800013A120602F040721A433B689B88013B38
:105A18001B0403F470231A433B68DB88013B1B0516
:105A280003F4E0031A433B681B89013BC3F30903F2
:105A38001A433B69DA61FB681033184615F0B2F96E
:105A480000210B4618461837BD4680BD00FC80FC77
:105A580080B58CB004AF786039607B685B68FB61A7
:105A6800184BBB61FB691C333A681946B86915F0D5
:105A780027FA78617B69002B1ED00323002B18D0EE
:105A88000123FB74FB7C83F00103DBB2002B10D1F4
:105A98000D4B19687B6903930C4B02930023019308
:105AA8000023009300230122002015F055FA00235B
:105AB800FB606FF0040300E0002318462037BD4662
:105AC80080BD00BF5460020868040020C479020841
